{
  "_format": "hh-sol-artifact-1",
  "contractName": "Blockvote",
  "sourceName": "contracts/Blockvote.sol",
  "abi": [
    {
      "inputs": [],
      "stateMutability": "nonpayable",
      "type": "constructor"
    },
    {
      "inputs": [
        {
          "internalType": "string",
          "name": "title",
          "type": "string"
        },
        {
          "internalType": "string",
          "name": "description",
          "type": "string"
        },
        {
          "internalType": "string[4]",
          "name": "optionsArray",
          "type": "string[4]"
        }
      ],
      "name": "createPost",
      "outputs": [
        {
          "internalType": "uint256",
          "name": "",
          "type": "uint256"
        }
      ],
      "stateMutability": "payable",
      "type": "function"
    },
    {
      "inputs": [],
      "name": "fetchPostcount",
      "outputs": [
        {
          "internalType": "uint256",
          "name": "",
          "type": "uint256"
        }
      ],
      "stateMutability": "view",
      "type": "function"
    },
    {
      "inputs": [
        {
          "internalType": "uint256",
          "name": "postid",
          "type": "uint256"
        }
      ],
      "name": "fetchPosts",
      "outputs": [
        {
          "internalType": "address",
          "name": "",
          "type": "address"
        },
        {
          "internalType": "string",
          "name": "",
          "type": "string"
        },
        {
          "internalType": "string",
          "name": "",
          "type": "string"
        },
        {
          "internalType": "string[4]",
          "name": "",
          "type": "string[4]"
        },
        {
          "internalType": "uint256[4]",
          "name": "",
          "type": "uint256[4]"
        }
      ],
      "stateMutability": "view",
      "type": "function"
    },
    {
      "inputs": [],
      "name": "postcount",
      "outputs": [
        {
          "internalType": "uint256",
          "name": "",
          "type": "uint256"
        }
      ],
      "stateMutability": "view",
      "type": "function"
    },
    {
      "inputs": [
        {
          "internalType": "uint256",
          "name": "",
          "type": "uint256"
        }
      ],
      "name": "posts",
      "outputs": [
        {
          "internalType": "uint256",
          "name": "id",
          "type": "uint256"
        },
        {
          "internalType": "address",
          "name": "poster",
          "type": "address"
        },
        {
          "internalType": "string",
          "name": "title",
          "type": "string"
        },
        {
          "internalType": "string",
          "name": "description",
          "type": "string"
        }
      ],
      "stateMutability": "view",
      "type": "function"
    },
    {
      "inputs": [
        {
          "internalType": "uint256",
          "name": "postid",
          "type": "uint256"
        },
        {
          "internalType": "uint8",
          "name": "option",
          "type": "uint8"
        }
      ],
      "name": "vote",
      "outputs": [
        {
          "internalType": "uint8",
          "name": "",
          "type": "uint8"
        }
      ],
      "stateMutability": "payable",
      "type": "function"
    }
  ],
  "bytecode": "0x60806040523480156200001157600080fd5b50600080819055506060604051806060016040528060308152602001620019e7603091399050620000b86040518060400160405280600e81526020017f486920544b532050656f706c65210000000000000000000000000000000000008152506040518060a00160405280606d815260200162001a17606d9139604051806080016040528085815260200185815260200185815260200185815250620000c060201b60201c565b5050620003b6565b600066b1a2bc2ec500003414620000d657600080fd5b6060600167ffffffffffffffff81118015620000f157600080fd5b50604051908082528060200260200182016040528015620001215781602001602082028036833780820191505090505b50905033816000815181106200013357fe5b602002602001019073ffffffffffffffffffffffffffffffffffffffff16908173ffffffffffffffffffffffffffffffffffffffff1681525050604051806080016040528060005481526020013373ffffffffffffffffffffffffffffffffffffffff1681526020018681526020018581525060016000805481526020019081526020016000206000820151816000015560208201518160010160006101000a81548173ffffffffffffffffffffffffffffffffffffffff021916908373ffffffffffffffffffffffffffffffffffffffff16021790555060408201518160020190805190602001906200022992919062000310565b5060608201518160030190805190602001906200024892919062000310565b5090505060005b60048160ff161015620002ee576040518060400160405280858360ff16600481106200027757fe5b602002015181526020016000815250600160008054815260200190815260200160002060040160008360ff1660ff1681526020019081526020016000206000820151816000019080519060200190620002d292919062000310565b506020820151816001015590505080806001019150506200024f565b5060008081548092919060010191905055506001600054039150509392505050565b828054600181600116156101000203166002900490600052602060002090601f016020900481019282601f106200035357805160ff191683800117855562000384565b8280016001018555821562000384579182015b828111156200038357825182559160200191906001019062000366565b5b50905062000393919062000397565b5090565b5b80821115620003b257600081600090555060010162000398565b5090565b61162180620003c66000396000f3fe6080604052600436106100555760003560e01c80630b1e7f831461005a5780631e27e1341461009a57806361cb8853146100c5578063943e821614610106578063bd9627c514610136578063e01f6e6714610161575b600080fd5b34801561006657600080fd5b50610081600480360381019061007c9190611122565b610191565b60405161009194939291906113b1565b60405180910390f35b3480156100a657600080fd5b506100af610311565b6040516100bc9190611396565b60405180910390f35b3480156100d157600080fd5b506100ec60048036038101906100e79190611122565b61031a565b6040516100fd95949392919061132d565b60405180910390f35b610120600480360381019061011b919061114b565b6108ed565b60405161012d9190611404565b60405180910390f35b34801561014257600080fd5b5061014b610c79565b6040516101589190611396565b60405180910390f35b61017b6004803603810190610176919061108b565b610c7f565b6040516101889190611396565b60405180910390f35b60016020528060005260406000206000915090508060000154908060010160009054906101000a900473ffffffffffffffffffffffffffffffffffffffff1690806002018054600181600116156101000203166002900480601f0160208091040260200160405190810160405280929190818152602001828054600181600116156101000203166002900480156102695780601f1061023e57610100808354040283529160200191610269565b820191906000526020600020905b81548152906001019060200180831161024c57829003601f168201915b505050505090806003018054600181600116156101000203166002900480601f0160208091040260200160405190810160405280929190818152602001828054600181600116156101000203166002900480156103075780601f106102dc57610100808354040283529160200191610307565b820191906000526020600020905b8154815290600101906020018083116102ea57829003601f168201915b5050505050905084565b60008054905090565b6000606080610327610ec2565b61032f610ee9565b6001600087815260200190815260200160002060010160009054906101000a900473ffffffffffffffffffffffffffffffffffffffff1660016000888152602001908152602001600020600201600160008981526020019081526020016000206003016040518060800160405280600160008c815260200190815260200160002060040160008060ff1681526020019081526020016000206000018054600181600116156101000203166002900480601f01602080910402602001604051908101604052809291908181526020018280546001816001161561010002031660029004801561045e5780601f106104335761010080835404028352916020019161045e565b820191906000526020600020905b81548152906001019060200180831161044157829003601f168201915b50505050508152602001600160008c81526020019081526020016000206004016000600160ff1681526020019081526020016000206000018054600181600116156101000203166002900480601f01602080910402602001604051908101604052809291908181526020018280546001816001161561010002031660029004801561052a5780601f106104ff5761010080835404028352916020019161052a565b820191906000526020600020905b81548152906001019060200180831161050d57829003601f168201915b50505050508152602001600160008c81526020019081526020016000206004016000600260ff1681526020019081526020016000206000018054600181600116156101000203166002900480601f0160208091040260200160405190810160405280929190818152602001828054600181600116156101000203166002900480156105f65780601f106105cb576101008083540402835291602001916105f6565b820191906000526020600020905b8154815290600101906020018083116105d957829003601f168201915b50505050508152602001600160008c81526020019081526020016000206004016000600360ff1681526020019081526020016000206000018054600181600116156101000203166002900480601f0160208091040260200160405190810160405280929190818152602001828054600181600116156101000203166002900480156106c25780601f10610697576101008083540402835291602001916106c2565b820191906000526020600020905b8154815290600101906020018083116106a557829003601f168201915b50505050508152506040518060800160405280600160008d815260200190815260200160002060040160008060ff168152602001908152602001600020600101548152602001600160008d81526020019081526020016000206004016000600160ff168152602001908152602001600020600101548152602001600160008d81526020019081526020016000206004016000600260ff168152602001908152602001600020600101548152602001600160008d81526020019081526020016000206004016000600360ff16815260200190815260200160002060010154815250838054600181600116156101000203166002900480601f0160208091040260200160405190810160405280929190818152602001828054600181600116156101000203166002900480156108375780601f1061080c57610100808354040283529160200191610837565b820191906000526020600020905b81548152906001019060200180831161081a57829003601f168201915b50505050509350828054600181600116156101000203166002900480601f0160208091040260200160405190810160405280929190818152602001828054600181600116156101000203166002900480156108d35780601f106108a8576101008083540402835291602001916108d3565b820191906000526020600020905b8154815290600101906020018083116108b657829003601f168201915b505050505092509450945094509450945091939590929450565b6000662386f26fc10000341461090257600080fd5b60005483106109145760019050610c73565b3373ffffffffffffffffffffffffffffffffffffffff166001600085815260200190815260200160002060010160009054906101000a900473ffffffffffffffffffffffffffffffffffffffff1673ffffffffffffffffffffffffffffffffffffffff1614156109875760029050610c73565b600115156001600085815260200190815260200160002060040160008060ff16815260200190815260200160002060020160003373ffffffffffffffffffffffffffffffffffffffff1673ffffffffffffffffffffffffffffffffffffffff16815260200190815260200160002060009054906101000a900460ff1615151480610a8d575060011515600160008581526020019081526020016000206004016000600160ff16815260200190815260200160002060020160003373ffffffffffffffffffffffffffffffffffffffff1673ffffffffffffffffffffffffffffffffffffffff16815260200190815260200160002060009054906101000a900460ff161515145b80610b14575060011515600160008581526020019081526020016000206004016000600260ff16815260200190815260200160002060020160003373ffffffffffffffffffffffffffffffffffffffff1673ffffffffffffffffffffffffffffffffffffffff16815260200190815260200160002060009054906101000a900460ff161515145b80610b9b575060011515600160008581526020019081526020016000206004016000600360ff16815260200190815260200160002060020160003373ffffffffffffffffffffffffffffffffffffffff1673ffffffffffffffffffffffffffffffffffffffff16815260200190815260200160002060009054906101000a900460ff161515145b15610ba95760039050610c73565b600180600085815260200190815260200160002060040160008460ff1660ff16815260200190815260200160002060020160003373ffffffffffffffffffffffffffffffffffffffff1673ffffffffffffffffffffffffffffffffffffffff16815260200190815260200160002060006101000a81548160ff0219169083151502179055506001600084815260200190815260200160002060040160008360ff1660ff16815260200190815260200160002060010160008154809291906001019190505550600090505b92915050565b60005481565b600066b1a2bc2ec500003414610c9457600080fd5b6060600167ffffffffffffffff81118015610cae57600080fd5b50604051908082528060200260200182016040528015610cdd5781602001602082028036833780820191505090505b5090503381600081518110610cee57fe5b602002602001019073ffffffffffffffffffffffffffffffffffffffff16908173ffffffffffffffffffffffffffffffffffffffff1681525050604051806080016040528060005481526020013373ffffffffffffffffffffffffffffffffffffffff1681526020018681526020018581525060016000805481526020019081526020016000206000820151816000015560208201518160010160006101000a81548173ffffffffffffffffffffffffffffffffffffffff021916908373ffffffffffffffffffffffffffffffffffffffff1602179055506040820151816002019080519060200190610de2929190610f0b565b506060820151816003019080519060200190610dff929190610f0b565b5090505060005b60048160ff161015610ea0576040518060400160405280858360ff1660048110610e2c57fe5b602002015181526020016000815250600160008054815260200190815260200160002060040160008360ff1660ff1681526020019081526020016000206000820151816000019080519060200190610e85929190610f0b565b50602082015181600101559050508080600101915050610e06565b5060008081548092919060010191905055506001600054039150509392505050565b60405180608001604052806004905b6060815260200190600190039081610ed15790505090565b6040518060800160405280600490602082028036833780820191505090505090565b828054600181600116156101000203166002900490600052602060002090601f016020900481019282601f10610f4c57805160ff1916838001178555610f7a565b82800160010185558215610f7a579182015b82811115610f79578251825591602001919060010190610f5e565b5b509050610f879190610f8b565b5090565b5b80821115610fa4576000816000905550600101610f8c565b5090565b600082601f830112610fb957600080fd5b6004610fcc610fc78261144c565b61141f565b9150818360005b838110156110035781358601610fe9888261100d565b845260208401935060208301925050600181019050610fd3565b5050505092915050565b600082601f83011261101e57600080fd5b813561103161102c8261146e565b61141f565b9150808252602083016020830185838301111561104d57600080fd5b61105883828461156a565b50505092915050565b600081359050611070816115bd565b92915050565b600081359050611085816115d4565b92915050565b6000806000606084860312156110a057600080fd5b600084013567ffffffffffffffff8111156110ba57600080fd5b6110c68682870161100d565b935050602084013567ffffffffffffffff8111156110e357600080fd5b6110ef8682870161100d565b925050604084013567ffffffffffffffff81111561110c57600080fd5b61111886828701610fa8565b9150509250925092565b60006020828403121561113457600080fd5b600061114284828501611061565b91505092915050565b6000806040838503121561115e57600080fd5b600061116c85828601611061565b925050602061117d85828601611076565b9150509250929050565b6000611193838361128e565b905092915050565b60006111a78383611300565b60208301905092915050565b6111bc81611521565b82525050565b60006111cd826114ae565b6111d781856114e9565b9350836020820285016111e98561149a565b8060005b8581101561122557848403895281516112068582611187565b9450611211836114cf565b925060208a019950506001810190506111ed565b50829750879550505050505092915050565b611240816114b9565b61124a81846114f4565b9250611255826114a4565b8060005b8381101561128657815161126d878261119b565b9650611278836114dc565b925050600181019050611259565b505050505050565b6000611299826114c4565b6112a381856114ff565b93506112b3818560208601611579565b6112bc816115ac565b840191505092915050565b60006112d2826114c4565b6112dc8185611510565b93506112ec818560208601611579565b6112f5816115ac565b840191505092915050565b61130981611553565b82525050565b61131881611553565b82525050565b6113278161155d565b82525050565b60006101008201905061134360008301886111b3565b818103602083015261135581876112c7565b9050818103604083015261136981866112c7565b9050818103606083015261137d81856111c2565b905061138c6080830184611237565b9695505050505050565b60006020820190506113ab600083018461130f565b92915050565b60006080820190506113c6600083018761130f565b6113d360208301866111b3565b81810360408301526113e581856112c7565b905081810360608301526113f981846112c7565b905095945050505050565b6000602082019050611419600083018461131e565b92915050565b6000604051905081810181811067ffffffffffffffff8211171561144257600080fd5b8060405250919050565b600067ffffffffffffffff82111561146357600080fd5b602082029050919050565b600067ffffffffffffffff82111561148557600080fd5b601f19601f8301169050602081019050919050565b6000819050919050565b6000819050919050565b600060049050919050565b600060049050919050565b600081519050919050565b6000602082019050919050565b6000602082019050919050565b600081905092915050565b600081905092915050565b600082825260208201905092915050565b600082825260208201905092915050565b600061152c82611533565b9050919050565b600073ffffffffffffffffffffffffffffffffffffffff82169050919050565b6000819050919050565b600060ff82169050919050565b82818337600083830152505050565b60005b8381101561159757808201518184015260208101905061157c565b838111156115a6576000848401525b50505050565b6000601f19601f8301169050919050565b6115c681611553565b81146115d157600080fd5b50565b6115dd8161155d565b81146115e857600080fd5b5056fea2646970667358221220f88f59cacc75f6347e9fdcfc4b0b087ce9d51fa596d876636826b70022f19c7264736f6c634300060c0033446566696e6974656c79206e65656420746f206769766520746869732067757920746865207363686f6c617273686970546869732069732074686520696e697469616c20706f73742063726561746564206f6e2074686520626c6f636b636861696e2e20437265617465206e6577206f6e657320776974682074686520274e657720506f73742720627574746f6e2061626f76652e205468616e6b7321",
  "linkReferences": {},
  "deployedLinkReferences": {}
}